{
  "contractName": "Calculator",
  "abi": [
    {
      "inputs": [],
      "name": "result",
      "outputs": [
        {
          "internalType": "uint256",
          "name": "",
          "type": "uint256"
        }
      ],
      "stateMutability": "view",
      "type": "function",
      "constant": true
    },
    {
      "inputs": [
        {
          "internalType": "uint256",
          "name": "num1",
          "type": "uint256"
        },
        {
          "internalType": "uint256",
          "name": "num2",
          "type": "uint256"
        }
      ],
      "name": "add",
      "outputs": [
        {
          "internalType": "uint256",
          "name": "",
          "type": "uint256"
        }
      ],
      "stateMutability": "nonpayable",
      "type": "function"
    },
    {
      "inputs": [
        {
          "internalType": "uint256",
          "name": "num1",
          "type": "uint256"
        },
        {
          "internalType": "uint256",
          "name": "num2",
          "type": "uint256"
        }
      ],
      "name": "sub",
      "outputs": [
        {
          "internalType": "uint256",
          "name": "",
          "type": "uint256"
        }
      ],
      "stateMutability": "nonpayable",
      "type": "function"
    },
    {
      "inputs": [
        {
          "internalType": "uint256",
          "name": "num1",
          "type": "uint256"
        },
        {
          "internalType": "uint256",
          "name": "num2",
          "type": "uint256"
        }
      ],
      "name": "mul",
      "outputs": [
        {
          "internalType": "uint256",
          "name": "",
          "type": "uint256"
        }
      ],
      "stateMutability": "nonpayable",
      "type": "function"
    },
    {
      "inputs": [
        {
          "internalType": "uint256",
          "name": "num1",
          "type": "uint256"
        },
        {
          "internalType": "uint256",
          "name": "num2",
          "type": "uint256"
        }
      ],
      "name": "div",
      "outputs": [
        {
          "internalType": "uint256",
          "name": "",
          "type": "uint256"
        }
      ],
      "stateMutability": "nonpayable",
      "type": "function"
    }
  ],
  "bytecode": "0x608060405234801561001057600080fd5b506103d0806100206000396000f3fe608060405234801561001057600080fd5b50600436106100575760003560e01c8063653721471461005c578063771602f71461007a578063a391c15b146100aa578063b67d77c5146100da578063c8a4ac9c1461010a575b600080fd5b61006461013a565b60405161007191906101d5565b60405180910390f35b610094600480360381019061008f9190610221565b610140565b6040516100a191906101d5565b60405180910390f35b6100c460048036038101906100bf9190610221565b61015f565b6040516100d191906101d5565b60405180910390f35b6100f460048036038101906100ef9190610221565b61017e565b60405161010191906101d5565b60405180910390f35b610124600480360381019061011f9190610221565b61019d565b60405161013191906101d5565b60405180910390f35b60005481565b6000818361014e9190610290565b600081905550600054905092915050565b6000818361016d91906102f3565b600081905550600054905092915050565b6000818361018c9190610324565b600081905550600054905092915050565b600081836101ab9190610358565b600081905550600054905092915050565b6000819050919050565b6101cf816101bc565b82525050565b60006020820190506101ea60008301846101c6565b92915050565b600080fd5b6101fe816101bc565b811461020957600080fd5b50565b60008135905061021b816101f5565b92915050565b60008060408385031215610238576102376101f0565b5b60006102468582860161020c565b92505060206102578582860161020c565b9150509250929050565b7f4e487b7100000000000000000000000000000000000000000000000000000000600052601160045260246000fd5b600061029b826101bc565b91506102a6836101bc565b92508282019050808211156102be576102bd610261565b5b92915050565b7f4e487b7100000000000000000000000000000000000000000000000000000000600052601260045260246000fd5b60006102fe826101bc565b9150610309836101bc565b925082610319576103186102c4565b5b828204905092915050565b600061032f826101bc565b915061033a836101bc565b925082820390508181111561035257610351610261565b5b92915050565b6000610363826101bc565b915061036e836101bc565b925082820261037c816101bc565b9150828204841483151761039357610392610261565b5b509291505056fea26469706673582212200fb57a6e7522de1574602c66d0621ee9445d414825f106f6825f1038413ea35c64736f6c63430008130033",
  "immutableReferences": {},
  "source": "// SPDX-License-Identifier: MIT\r\npragma solidity ^0.8.19;\r\n\r\ncontract Calculator{\r\n\r\n    uint public result;\r\n    \r\n    function add(uint num1, uint num2) public returns(uint){\r\n        result = num1 + num2;\r\n        return result;\r\n    }\r\n\r\n    function sub(uint num1, uint num2) public returns(uint){\r\n        result = num1 - num2;\r\n        return result;\r\n    }\r\n\r\n    function mul(uint num1, uint num2) public returns(uint){\r\n        result = num1 * num2;\r\n        return result;\r\n    }\r\n\r\n    function div(uint num1, uint num2) public returns(uint){\r\n        result = num1 / num2;\r\n        return result;\r\n    }\r\n}",
  "sourcePath": "D:\\NOTES\\YEAR 2\\Block chain\\practical\\smartcontracts\\calc\\truffle-back-cop\\contracts\\Calculator.sol",
  "compiler": {
    "name": "solc",
    "version": "0.8.19+commit.7dd6d404.Emscripten.clang"
  },
  "schemaVersion": "3.4.16",
  "updatedAt": "2025-03-14T07:31:43.567Z",
  "networkType": "ethereum",
  "devdoc": {
    "kind": "dev",
    "methods": {},
    "version": 1
  },
  "userdoc": {
    "kind": "user",
    "methods": {},
    "version": 1
  }
}